:020000040800F2
:20000000501E0020A104000875040008770400087B0400087F040008830400080000000000
:20002000000000000000000000000000870400088904000800000000B70400088B0400083E
:20004000BB040008BB040008BB040008BB040008BB040008BB040008BB040008BB04000868
:20006000BB040008BB040008BB040008BB040008BB040008BB040008BB040008BB04000848
:20008000BB040008BB040008BB040008BB0400088D040008BB040008BB040008BB04000856
:2000A000BB040008BB040008BB040008BB040008BB040008BB040008BB040008BB04000808
:2000C000BB040008BB040008BB040008BB040008BB040008BB040008BB040008BB040008E8
:2000E000BB040008BB04000895040008BB040008BB040008BB040008BB040008BB040008EE
:20010000BB040008BB040008BB040008BB040008BB040008BB040008BB040008BB040008A7
:20012000BB040008BB040008BB040008BB04000800F002F800F05AF80AA090E8000C824483
:200140008344AAF10107DA4501D100F04FF8AFF2090EBAE80F0013F0010F18BFFB1A43F072
:2001600001031847C83D0000E83D00000A444FF0000C10F8013B13F0070408BF10F8014BEC
:200180001D1108BF10F8015B641E05D010F8016B641E01F8016BF9D113F0080F1EBF10F88B
:2001A000014BAD1C0C1B09D16D1E58BF01F801CBFAD505E014F8016B01F8016B6D1EF9D5D8
:2001C0009142D6D3704700000023002400250026103A28BF78C1FBD8520728BF30C148BFE5
:2001E0000B6070471FB51FBD10B510BD03F02DFE1146FFF7F7FF00F003F903F04BFE03B45B
:20020000FFF7F2FF03BC01F08FFA000030BF72B662B680F3088870470CB5002001900090D3
:200220006C48006840F480306A49086000BF6948006800F4003000900198401C01900098F9
:2002400020B94FF6FF7101988842F0D16148006800F4003010B10120009001E000200090B4
:200260000098012843D15C48006840F010005A4908600846006820F003000860084600686B
:2002800040F00200086053484068524948600846406848600846406840F4806048600846A0
:2002A000406820F47C1048600846406840F4041048600846006840F08070086000BF4548DE
:2002C000006800F000700028F9D04248406820F00300404948600846406840F0020048601F
:2002E00000BF3C48406800F00C000828F9D10CBD10B5FFF791FF10BD10B53648006840F061
:2003000001003449086008464068344908403149486008460068324908402E490860084674
:20032000006820F4802008600846406820F4FE0048604FF41F008860FFF7DAFF4FF00060D1
:200340002849086010BD10B5002100200022214B5B6803F00C0121B1042906D0082928D1A1
:2003600007E0214B214C236027E0214B1F4C236023E0184B5B6803F47010164B5B6803F41E
:200380008032022303EB904022B91A4B4343174C23600DE00F4B5B6803F4003323B1164BB3
:2003A0004343124C236003E0114B43430F4C236003E00D4B0D4C236000BF00BF054B5B688B
:2003C000C3F303130D4CE15C084B1B68CB40074C236010BD00100240002002400000FFF88C
:2003E000FFFFF6FE08ED00E0405DC60000000020001BB700A02E6300808D5B000400002024
:2004000070B5174C002501F07BFA01F0A3FA01F0E7F901F048FAF0B101201249087001F0B1
:2004200048FB12E0641E74B93DB101F061FB002520210D4800F071FE04E0012520210A48E6
:2004400000F06DFE094C01F00CFD064800780028E8D101F029FB064801F0A9F9002070BD08
:20046000400D0300280000200018014080841E0000400008704700BFFEE700BFFEE700BF63
:20048000FEE700BFFEE770477047704710B501F06FFE10BD10B54FF4802001F03CF910BD23
:2004A0000948804709480047FEE7FEE7FEE7FEE7FEE7FEE7FEE7FEE7FEE7FEE70448054900
:2004C000054A064B70470000F90200083101000850180020501E0020501A0020501A00205E
:2004E00031490143314A1160704770B5002100230F22C47804B32D4C246804F4E064C4F514
:20050000E064210AC1F10403CA40447804FA03F18478144021430901254C0678A1550478DC
:2005200004F01F050124AC4005786D11AD0005F1E025C5F8004109E0047804F01F0501244F
:20054000AC401C4D0678761145F8264070BD1A4A0A400243154B1B1F1A60704739B1134A6C
:20056000121D12680243114B1B1D1A6006E00F4A121D126882430D4B1B1D1A6070470428E5
:2005800008D14FF0E021096941F004014FF0E022116107E04FF0E021096921F004014FF0F9
:2005A000E0221161704700000000FA050CED00E000E400E080E100E080FFFF1F014600202F
:2005C000FE4A106800F03800084310607047FB49096821F00801F94A116011460968014332
:2005E00011607047F549096821F01001F34A116011460968014311607047F148EF49486007
:20060000F0484860EE484864EE4848647047EC48EA494860EB4848607047E948E7494864D1
:20062000E84848647047E548006940F08000E34908610846006D40F0800008657047DF4896
:20064000006940F08000DD4908617047DB48006D40F08000D949086570470420D749C96C3C
:2006600001F0010109B101200EE0D449C96C01F0040109B1022007E0D049C96C01F0100163
:2006800009B1032000E00420704700B502460423FFF7E3FF034603E0FFF7DFFF0346521E0D
:2006A000012B01D1002AF7D102B90523184600BD0420C249C96801F0010109B101200EE030
:2006C000BE49C96801F0040109B1022007E0BB49C96801F0100109B1032000E0042070475A
:2006E00000B502460423FFF7E3FF034603E0FFF7DFFF0346521E012B01D1002AF7D102B99A
:200700000523184600BD30B504460425AE4884421DD2681FFFF7E4FF0546042D36D1A748C1
:20072000006940F00200A549086108464461006940F040000861681FFFF7D2FF05469F4812
:20074000006941F6FD7108409C4908611EE04FF0FF30FFF79AFF0546042D17D19748006D4A
:2007600040F0020095490865084644614465006D40F040000865681FFFF787FF05468F48F1
:20078000006D41F6FD7108408C490865284630BD10B50424601FFFF7A3FF0446042C15D1FE
:2007A0008648006940F00400844908610846006940F040000861601FFFF792FF04467F48F1
:2007C000006941F6FB7108407C490861042C15D17A48006D40F00400784908650846006D35
:2007E00040F040000865601FFFF74FFF04467348006D41F6FB71084070490865204610BDA3
:2008000010B50424601FFFF76BFF0446042C15D16A48006940F0040068490861084600698C
:2008200040F040000861601FFFF75AFF04466348006941F6FB71084060490861204610BD83
:2008400010B50424601FFFF720FF0446042C15D15A48006D40F00400584908650846006DAB
:2008600040F040000865601FFFF70FFF04465348006D41F6FB71084050490865204610BDA2
:2008800000B502460423FFF713FF034603E0FFF70FFF0346521E012B01D1002AF7D102B998
:2008A0000523184600BD00204449C96901F0020109B1012000E00020704730B5A5250424B9
:2008C000FFF7F1FF00B100254FF0FF30FFF7D8FF0446042C43D13A4838498860394888603F
:2008E00000BF3648006900F40070B0F5007FF8D13248006940F02000304908610846006935
:2009000040F0400008614FF0FF30FFF7B9FF0446042C1BD12948006941F6DF710840274963
:2009200008610846006940F01000086127480580601FFFF7A5FF0446052C10D01F480069B6
:2009400041F6EF7108401D49086108E0052C06D01A48006941F6EF71084018490861204620
:2009600030BD78B504460D460426002000901648801E844236D2701FFFF7B2FE0646042E69
:2009800027D10E48006940F001000C4908612580701FFFF775FF0646042E1BD1A01C00905D
:2009A000280C00990880701FFFF76AFF06460348006941F6FE710840004909E00020024072
:2009C00023016745AB89EFCDFFFF070800F8FF1F08617DE0FE48006941F6FE710840FC498C
:2009E000086175E0FB48844246D14FF0FF30FFF777FE0646042E12D1F548006940F0010008
:200A0000F34908612580701FFFF76AFE0646F048006941F6FE710840ED49086106E0EC480B
:200A2000006941F6FE710840E94908614FF0FF30FFF72BFE0646042E16D1E548006D40F008
:200A40000100E3490865A01C0090280C00990880701FFFF71AFE0646DD48006D41F6FE713A
:200A60000840DB49086533E0D948006D41F6FE710840D74908652BE04FF0FF30FFF705FE0F
:200A80000646042E24D1D248006D40F00100D04908652580701FFFF7F8FD0646042E10D127
:200AA000A01C0090280C00990880701FFFF7EDFD0646C748006D41F6FE710840C4490865F6
:200AC00006E0C348006D41F6FE710840C0490865304678BD70B504460D460426701FFFF738
:200AE000CFFE0646BB48401C844214D2042E26D1B748006940F00100B54908612580701F75
:200B0000FFF7EEFD0646B248006941F6FE710840AF49086113E0042E11D1AD48006D40F05D
:200B20000100AB4908652580701FFFF7AEFD0646A748006D41F6FE710840A5490865304617
:200B400070BD70B505460E460424601FFFF798FE0446042C21D1A0489D4988609F48886080
:200B600000BF9B48006900F40070B0F5007FF8D19748006940F01000954908612E804FF05D
:200B8000FF30FFF77DFE0446052C06D09048006941F6EF7108408E490861204670BD2DE95B
:200BA000F04304464FF6FF763746B046B1460425E443E6B2C4F30727C4F307484FEA14690B
:200BC000681FFFF75DFE0546042D49D18248804988608248886000BF7D48006900F4007029
:200BE000B0F5007FF8D17A48006940F0100078490861FF2E06D07A4806804FF0FF30FFF7C4
:200C00003FFE0546042D08D1FF2F06D07448801C0780681FFFF734FE0546042D0AD1B8F1B0
:200C2000FF0F07D06E48001DA0F80080681FFFF727FE0546042D0AD1B9F1FF0F07D06848AC
:200C4000801DA0F80090681FFFF71AFE0546052D06D05F48006941F6EF7108405C490861EA
:200C60002846BDE8F08330B505460424601FFFF707FE0446042C4CD15748554988605748C1
:200C8000886000BF5248006900F40070B0F5007FF8D14F48006940F020004D4908610846BC
:200CA000006940F0400008614FF0FF30FFF7E8FD0446042C24D14648006941F6DF71084074
:200CC000434908610846006940F01000086125B1002043490839088003E0A5204049083902
:200CE00008804FF0FF30FFF7CBFD0446052C10D03748006941F6EF7108403549086108E04F
:200D0000052C06D03248006941F6DF71084030490861204630BDF0B505460E46174604241C
:200D20002D482B4988602D48886000BF2848006900F40070B0F5007FF8D14FF0FF30FFF738
:200D40009FFD0446042C19D12148006940F010001F49086147F0F800304328432049891F92
:200D60000880601FFFF78CFD0446052C06D01848006941F6EF710840154908612046F0BD1A
:200D800030B5054604241448114988601348886000BF0F48006900F40070B0F5007FF8D14A
:200DA0004FF0FF30FFF76CFD0446042C2FD10848006940F01000064908619DB90848801FF6
:200DC000008840F008000649891F088011E0000000200240FEFF070823016745AB89EFCDB5
:200DE00008F8FF1F444800884FF6F7710840424908804FF0FF30FFF743FD0446052C06D0C4
:200E00003E48006941F6EF7108403C490861204630BD3A48C069800870473848006A704738
:200E200000203649096801F0200109B1012000E00020704700F0004282B139B12F4A126DB7
:200E400020F000431A432D4B1A6513E02B4A126D20F000439A43294B1A650BE029B1274AAB
:200E600012690243254B1A6104E0244A12698243224B1A61704701460020012908D11F4AC3
:200E8000D26902F001020AB1012013E0002011E001F000423AB1194AD26C0A400AB101205D
:200EA00008E0002006E0154AD2680A400AB1012000E00020704700F0004111B10F49C86457
:200EC00001E00E49C860704704200C49C96801F0010109B101200EE00849C96801F004011D
:200EE00009B1022007E00549C96801F0100109B1032000E00420704702F8FF1F002002409C
:200F000010B50446CC48844208D10121042000F02EFB0021042000F02AFB46E0C74884425B
:200F200008D10121082000F022FB0021082000F01EFB3AE0C248844208D10121102000F02A
:200F400016FB0021102000F012FB2EE0BD48844208D10121202000F00AFB0021202000F0D8
:200F600006FB22E0B848844208D10121402000F0FEFA0021402000F0FAFA16E0B348844249
:200F800008D10121802000F0F2FA0021802000F0EEFA0AE0AE48844207D10121801500F01C
:200FA000E6FA0021A01500F0E2FA10BD10B50121084600F0DCFA0021012000F0D8FA10BD16
:200FC0002DE9F041024600250026002000230024002791F803C00CF00F0591F803C00CF005
:200FE000100CBCF1000F03D091F802C04CEA050591F800C0BCF1000F31D0146800202BE00E
:201000004FF0010C0CFA00F3B1F800C00CEA03069E4220D183004FF00F0C0CFA03F7BC4376
:2010200005FA03FC4CEA040491F803C0BCF1280F06D14FF0010C0CFA00FCC2F814C00AE0A7
:2010400091F803C0BCF1480F05D14FF0010C0CFA00FCC2F810C0401C0828D1D31460B1F845
:2010600000C0BCF1FF0F34DD546800202EE000F1080C4FF0010808FA0CF3B1F800C00CEA4D
:2010800003069E4221D183004FF00F0C0CFA03F7BC4305FA03FC4CEA040491F803C0BCF164
:2010A000280F05D100F1080C08FA0CF8C2F8148091F803C0BCF1480F07D100F1080C4FF05E
:2010C000010808FA0CF8C2F81080401C0828CED35460BDE8F0814FF6FF7101800221817076
:2010E0000421C17070470246002093680B400BB1012000E0002070470146886880B2704781
:2011000002460020D3680B400BB1012000E0002070470146C86880B2704701617047416132
:2011200070470AB1016100E041617047C16070474FF480320A43826181618261826982690A
:20114000704702460020434B18684FF68073184040EA021008433F4B186070473E49C861E2
:201160007047F0B50A46002300240021002500F00046B6F1004F02D1364EF16901E0354EF5
:201180007168C0F3034583B200F44016B6F5401F08D121F070612F4E766826F070662D4F74
:2011A0007E6012E000F48016B6F5801F06D1032606FA05F4A14341F0706106E0460D36013C
:2011C00003FA06F6B14341F0706122B1460D360103FA06F6314300F00046B6F1004F02D157
:2011E0001C4EF16101E01B4E7160F0BD30B500228B071C0F0F2303FA04F2164B08338C104A
:2012000053F824309343134C08348D1044F8253023468C1053F824308C07240F00FA04F434
:2012200023430C4C08348D1044F8253030BD0A49DC3108607047000000080140000C014084
:20124000001001400014014000180140001C0140002001400000014000002042E04800689E
:2012600040F00100DE49086008464068DD490840DB49486008460068DB490840D8490860D3
:201280000846006820F4802008600846406820F4FE0048604FF41F0088607047D049096841
:2012A00021F48031CE4A11601146096821F480211160B0F5803F03D0B0F5802F0ED106E0A0
:2012C000C749096841F48031C54A116007E0C449096841F4A021C24A116000E000BF00BFF1
:2012E000704710B501460022002300204A11012A02D1BB4C236806E0022A02D1B84C236A65
:2013000001E0B74C636A01F01F02012494401C400CB1012000E0002010BD38B5002000906D
:201320000024002500BF3120FFF7DBFF05460098401C00904FF6FF710098884201D0002DA0
:20134000F1D03120FFF7CDFF08B1012400E00024204638BD01460020A14A106820F0F800AA
:2013600040EAC10010607047A04908607047024600209B4B586820F47C1042EA010318431A
:20138000974B5860704799490866704701460020934A506820F0030008435060704790485C
:2013A000406800F00C007047014600208C4A506820F0F00008435060704701460020884AF2
:2013C000506820F4E06008435060704701460020834A506820F4605040EAC100506070474D
:2013E00029B17F4A527A02437D4B5A7204E07C4A527A82437A4B5A7270477C49D8310860EC
:20140000704701460020764A506820F440400843506070470021724A20321170704A82F80C
:201420002010012802D004280AD104E001216C4A2032117005E00521694A2032117000E07A
:2014400000BF00BF70476A49086070476449096A0143634A11627047654944390860704700
:2014600030B500210022002400235D4D6D6805F00C0121B1042905D0082923D105E05D4DF4
:20148000056022E05C4D05601FE0554D6D6805F47012534D6D6805F48034022505EB9242D9
:2014A0001CB9564D554305600BE04D4D6D6805F400351DB1524D5543056002E04E4D5543B0
:2014C000056002E04B4D056000BF00BF444D6D6805F0F00109094B4D6B5C0568DD4045605E
:2014E0003F4D6D6805F4E061090A464D6B5C4568DD4085603A4D6D6805F46051C90A414DCE
:201500006B5C4568DD40C560354D6D6805F44041890B3D4D6B5CC568B5FBF3F5056130BD47
:2015200029B12F4A526902432D4B5A6104E02C4A526982432A4B5A61704729B1284A92691D
:201540000243274B9A6104E0254A92698243244B9A61704729B1224AD2690243204BDA6139
:2015600004E01F4AD26982431D4BDA61704729B11B4AD26802431A4BDA6004E0184AD268E7
:201580008243174BDA60704729B1154A12690243134B1A6104E0124A12698243104B1A610B
:2015A000704713494039086070471049C86470470B49C87170470A48406A40F08070084993
:2015C0004862704701460020054A92680A400AB1012000E000207047014988727047000022
:2015E000001002400000FFF8FFFFF6FE0000424280044242405DC600001BB700A02E6300BE
:20160000808D5B001400002024000020002044490860091D0860091D0860091D08604148A2
:201620003F4914310860704700213D498279002A3AD00A46126803689A430B461A600A1DE4
:20164000126803689A430B1D1A60027911440A6803681A430A60324A0832126803689A433A
:201660002F4B08331A601A1D126803689A432C4B0C331A604279102A0ED11A1F1268036820
:201680001A43274B08331A601A1D126803681A43234B0C331A600DE02149427911440A684D
:2016A00003681A430A6005E0027911440A6803689A430A6070470021016001710C21417195
:2016C0000021817170471649103109680143144A10321160704701460020114A14321268A1
:2016E0000A400AB1012000E0002070470C49143108607047014600200022094B1B6803EA07
:201700000102074B14331B680B4013B10AB1012000E0002070470249143108607047000059
:2017200000040140FFFF0F00014600BF704700BF054A128802F04002002AF9D0C2B2024B0A
:201740001B1D1A8070470000003801402DE9F05F06460F4690460024B3463D46A1461CE028
:2017600068784FEA002A287850441FFA80FAAD1C2046611C8CB2174921F810A0B4F5806FB4
:2017800007D100244FF48062584600F014F90BF5006B09F102001FFA80F9C145E0D324B106
:2017A00022460C49584600F006F9BDE8F09F10B50446206808490840B0F1005F08D16068DA
:2017C000064908602068FEF724FD04480068804710BD00005C0100200000FE2F2C00002076
:2017E00008B53820ADF8000010208DF8030003208DF8020069463D48FFF7E2FB8020ADF881
:20180000000069463A48FFF7DBFB4FF40050ADF8000069463748FFF7D3FB4FF4C040ADF8B9
:20182000000018208DF8030003208DF8020069462F48FFF7C5FB01212F48FFF792FC042021
:20184000ADF8000048208DF8030003208DF8020069462A48FFF7B4FB4FF48060ADF80000BB
:2018600069462348FFF7ACFB04212448FFF755FC4FF480611E48FFF750FC10211B48FFF783
:201880004EFC08211948FFF74AFC20211748FFF746FC4FF400511748FFF741FC802114483D
:2018A000FFF73DFC08BD10B54FF47A744FF480610F48FFF718FCB8B904211048FFF713FCC6
:2018C00090B900BF2000A4F101018CB2FAD14FF480610748FFF707FC30B904210748FFF781
:2018E00002FC08B9012010BD0020FCE700180140000801400010014000023000000C0140C6
:2019000010B54FF48030FFF7C9FC00BF1448006800F400300028F9D00220124908600020B7
:20192000FFF742FD4FF400114811FFF720FD0120FFF729FD00BF0A48006800F00070002874
:20194000F9D00220FFF722FD00BFFFF728FD0828FBD110BD10B501215D20FFF7EEFD10BDD2
:2019600000100240002002400146088870472DE9F04105460E461746002407E036F8141085
:201980002846FFF7A7F8AD1C601C84B2BC42F5DBBDE8F08130B503460C461546002207E001
:2019A0001846FFF7E1FF24F812009B1C501C82B2AA42F5DB30BD2DE9F05F80468A4617466D
:2019C000B8F1006F02D3B8F1016F01D3BDE8F09FFEF713FEA8F1006B4FEADB25CBF34909A6
:2019E000C9F58064A74200DC3C464DE04FF0006101EBC5204A142B49FFF7CCFF00260BE0BC
:201A000009EB0600274931F810004FF6FF71884200D003E0701C86B2A642F1DB00BFA642D2
:201A20001BDA4FF0006101EBC520FEF76CFE002608E03AF8160006EB09011A4A22F8110001
:201A4000701C86B2A642F4DB4FF0006101EBC5204A141449FFF78BFF04E0224651464046F6
:201A6000FFF785FFA74200D10FE06D1C4FF000090AEB440AA044381B87B2B7F5806F02DD45
:201A80004FF4806400E03C46B0E700BFFEF7CBFD00BF9BE713B50446012201A92046FFF72E
:201AA0008AFF1CBD5C09002010B5FC4801F0FAF910BD10B5FA48FFF7D3FCFEF744FC00F094
:201AC00023FA00F042FA0023F64AF749F34801F0F6F900F05EFAF14801F0DCF910BD0120CA
:201AE000F24908700020F2490870F2490880704700B5F048008808B1FFF7F1FF00BD0120F4
:201B0000EB49087070470A2106E000BF0A00A1F10103D9B2FAD10A210200A0F1010398B290
:201B2000F3D1704708B514208DF8000001208DF8010000208DF8020001208DF8030068460F
:201B4000FEF7D3FC08BD08B514208DF8000001208DF8010000208DF802008DF80300684602
:201B6000FEF7C3FC08BD70B504460020D24D2C800AE01D5CD04E36889555451CE8B2CE4D53
:201B80002D886D1CCC4E35808842F2DB70BD10B504462146C14802F01FF910BD10B544F61F
:201BA0002060C4490880C548007820B9C4480078552800D010BDC2480078012836D0022839
:201BC0001DD0182825D0552818D1BE480078062814D1002408E0BA48005DBB49095D88424D
:201BE00000D003E0601C84B2062CF4DB00BF062C04DB0120B5490870FFF781FFC6E0B14803
:201C00000078012804D10D20B0490870FFF777FFBCE0AF480288AF49AF480068FFF796FD47
:201C20000720AA490870FFF76AFFAFE0A548007828287DD10020A9490880012408E0A04892
:201C4000005DA64909880844A4490880601C84B2242CF4DD9A4890F82600A14908800846C3
:201C600000884FF6FF7101EA00209D490880944890F8250009880843994908800846008809
:201C80009649098888427AD18D4800799549086008460068000208608948C0780968084346
:201CA00090490860084600680002086084488078096808438B4908600846006800020860E7
:201CC0007F484078096808438649086008460068854988424BD302207C490870FFF70FFFC3
:201CE000824800687F490968884240D07D4800686FF309007E4908600846006876490968F2
:201D0000884204D172480088B0F5806F18D172480068401C58B14FF480626E496E480068E4
:201D2000FFF714FD73480088401C7249088000E02BE00020664908806D4800686649086044
:201D4000002409E05E49601D085C614909882144604A5054601C84B2202CF3DB5C48008808
:201D600020305B4908805F4800686049086006205349087001205049088006E0FFE715204A
:201D80004F49087001204C49088000BF00BF48480078002863D04D480078012806D00228DE
:201DA00036D0072835D00D2840D115E0012043490870801E4E4908604749086000204B4940
:201DC0000860434908804B49088006203C49087001203949088029E0492039490870464B20
:201DE0000A4607210120FFF7BEFE002034490872424B0A4604210920FFF7B5FE0020304914
:201E0000487388730620C87310202B4908800DE00CE000202949087006202949087001206B
:201E20002549088000203649087000BF00BF2248008888B120480088FFF7A9FE234800787C
:201E4000072809D1192402E00A20FFF75CFE2000A4F101018CB2F7D100201549087000BF6E
:201E6000A8E610B50D48C078032816D10F480078012806D14FF4FA600E490880074801F0E5
:201E8000BAFF2048006840B11E4800780D49087000201C490860FFF781FE10BDC0110020FC
:201EA000BC12002028010020680000203100002038000020400000205C0000203C00002082
:201EC0005C11002048000020A83E00083D0000203A000020D0120020580000203E00002090
:201EE000440000204C00002000400008500000205400002046000020BE3E0008C53E000871
:201F0000280000201C01002008B501214020FFF714FB0420ADF8000010208DF80300032054
:201F20008DF8020069464948FFF74AF808BD10B50446012C04D104214448FFF7EEF803E05C
:201F400004214248FFF7EBF810BD10B540480068404908403E49C039C1F8C0000846D0F897
:201F6000C00040F48030C1F8C0004FF4FA6400BF2000A4F10104FBD13548006840F0010048
:201F80003349C039C1F8C0000121C805FFF7E2FA10BD08B514208DF8000004208DF80100A5
:201FA00000208DF8020001208DF803006846FEF79CFA08BD4FF0E021096921F004014FF0CC
:201FC000E0221161C108244A1160114609684FF47A725143214A1160704701461F4A12689D
:201FE0004A434FF0E0235A6100229A6101221A6100BF4FF0E022106900F001021AB100F471
:020000040800F2
:202000008032002AF5D000224FF0E0231A619A6170470146104A12684A434FF0E0235A61E9
:2020200000229A6101221A6100BF4FF0E022106900F001021AB100F48032002AF5D00022F7
:202040004FF0E0231A619A617047000000180140C0100240FCFFFE006000002064000020A9
:20206000024612200880234870470246042008802148704770B505460C4622461F4920A0D6
:2020800001F055FB1D4870BD70B505460C4622461A4923A001F04BFB184870BD02461A20D7
:2020A00008802548704770B505460C462246134922A001F03CFB114870BD70B505460C46BC
:2020C00022460E4923A001F032FB0C4870BD70B500240025012634445CB108221649891C97
:2020E000204601F005FB042213491231284601F0FFFA70BDD23E0008E43E0008EA160020DD
:2021000047443332205669727475616C20436F6D506F727420696E204653204D6F6465008F
:20212000474433324D6963726F656C656374726F6E696373000000008400002056697274D1
:2021400075616C20436F6D506F727420436F6E66696700005669727475616C20436F6D506D
:202160006F727420496E746572666163650000001CB50020019000904448006880B2019090
:20218000BDF8040000F4004041490968084020B140480068416840488847BDF8040000F4A1
:2021A00080603B490968084040B14FF6FF303749086038480068016937488847BDF804005C
:2021C00000F4804032490968084040B14BF6FF702E4908602F48006881682F488847BDF8D4
:2021E000040000F400502A490968084040B14DF6FF702649086027480068C16826488847B4
:20220000BDF8040000F4805021490968084040B14EF6FF701D4908601E480068016A1E480D
:202220008847BDF8040000F4006019490968084040B118480068C169174888474FF2FF70E6
:2022400012490860BDF8040000F4007010490968084040B14FF6FF500C4908600D4800688D
:2022600041690D488847BDF8040000F4807008490968084040B14FF6FF6004490860054852
:2022800000688169044888471CBD0000445C0040A000002008010020C011002010B501294F
:2022A0000FD1244B03EB8002D2F8002C48F68F731A4042F040021F4C04EB8003C3F8002C97
:2022C0000FE071B91B4B03EB8002D2F8002C48F68F731A4042F48042164C04EB8003C3F8F8
:2022E000002C10BDF0B513465F1C7E10124F07EB4102344609E00578401C077845EA072730
:2023000022F8027B921C401C641E002CF3D1F0BDF0B5561C7510084E06EB41042B4605E07F
:2023200034F8047B20F8017B401C5B1E002BF7D1F0BD000000500040006000400120FE4951
:20234000086000200860091D0860FB49103108604FF47F40F94908600846008880B2F6491F
:20236000086070470120F44908600020091D08600320091F08607047F0B505460C4604F02A
:202380007F01E61136B1C1EBC10705F1100606EB870005E0C1EBC10705F1800606EB87009A
:2023A0001AB90026467043802FE0012A2DD10126467083801E0CC680E14F07EB8106D6F8AC
:2023C000006C46F4807648F68F773E40DFF870C30CEB8107C7F8006C868826F00106D64F9B
:2023E00010373F68BFB207EBC107DFF858C34CF81760C68826F00107CF4E10363668B6B242
:2024000006EBC106361D4CF81670F0BD2DE9F04104460D4605F07F0032B1012A35D0022AA3
:2024200013D0032A42D11FE0C54F07EB8006D6F8006C48F68F173E4046F40076DFF800C308
:202440000CEB8007C7F8006C30E0BD4F07EB8006D6F8006C48F68F173E40DFF8E4C20CEB2F
:202460008007C7F8006C21E0B54F07EB8006D6F8006C48F68F173E4046F4C066DFF8C0C2D8
:202480000CEB8007C7F8006C10E0AD4F07EB8006D6F8006C48F68F173E4046F48066DFF89C
:2024A000A0C20CEB8007C7F8006C00BF00BFEE11002E7DD0C0EBC00704F1100606EB870123
:2024C0009F4F07EB8006D6F8006C06F0400676B107EB8006D6F8006C48F68F773E4046F04F
:2024E0004006DFF85CC20CEB8007C7F8006C4E7886BB4E8826F001068F4F10373F68BFB2C1
:2025000007EBC007DFF83CC24CF81760DFF830C20CEB8007D7F8007C48F6BF7C07EA0C0664
:2025200086F02007DFF8188208EB800CCCF8007C00280ED1474607EB8006D6F8006C48F64A
:202540008F773E4046F04006C4460CEB8007C7F8006CD3E0FFE77A4F07EB8006D6F8006CB4
:2025600006F4804676B107EB8006D6F8006C48F68F773E4046F48046DFF8C4C10CEB800726
:20258000C7F8006C00276C4E10363668B6B206EBC006B61CDFF8ACC14CF81670664E103652
:2025A0003668B6B206EBC006B61D4CF8167000E020E0DFF88CC10CEB8007D7F8007C4BF6B3
:2025C0008F7C07EA0C06DFF878C10CEB8007C7F8006C0CEB8007D7F8007C48F6BF7C07EA01
:2025E0000C0686F03007DFF8588108EB800CCCF8007C83E0C0EBC00704F1800606EB8701E4
:202600004F4F07EB8006D6F8006C06F4804676B107EB8006D6F8006C48F68F773E4046F4D5
:202620008046DFF81CC10CEB8007C7F8006C4E7806BB4E8826F001073F4E10363668B6B223
:2026400006EBC006361DDFF8FCC04CF81670DFF8F0C00CEB8007D7F8007C4BF68F7C07EA86
:202660000C0686F40057DFF8D88008EB800CCCF8007C43E0324F07EB8006D6F8006C06F03D
:20268000400676B107EB8006D6F8006C48F68F773E4046F04006DFF8A8C00CEB8007C7F861
:2026A000006C274F07EB8006D6F8006C48F68F773E4046F04006DFF888C00CEB8007C7F8EC
:2026C000006C0CEB8007D7F8007C4BF68F7C07EA0C06DFF86CC00CEB8007C7F8006C0CEBD3
:2026E0008007D7F8007C48F6BF7C07EA0C06DFF850C00CEB8007C7F8006C00BF8B6000262C
:202700000E70CE600E614E618E61BDE8F08170B502460B4603F07F00DC11002C69D0C0EBBD
:20272000C00502F1100404EB8501054D05EB8004D4F8004C08E00000405C0040A0000020F6
:20274000005000400060004004F040046CB105EB8004D4F8004C48F68F752C4044F0400442
:20276000FE4E06EB8005C5F8004C4C7894B3FB4D05EB8004D4F8004C04F480446CB105EBE6
:202780008004D4F8004C48F68F752C4044F48044F24E06EB8005C5F8004CF04D05EB800483
:2027A000D4F8004C48F68F752C4044F04004EB4E06EB8005C5F8004C06EB8005D5F8005C84
:2027C0004BF68F7605EA0604E44E06EB8005C5F8004C00BFE14E06EB8005D5F8005C48F63E
:2027E000BF7605EA0604DD4E06EB8005C5F8004C5FE0C0EBC00502F1800404EB8501D74D42
:2028000005EB8004D4F8004C04F480446CB105EB8004D4F8004C48F68F752C4044F480441D
:20282000CE4E06EB8005C5F8004C4C7894B3CB4D05EB8004D4F8004C04F040046CB105EB09
:202840008004D4F8004C48F68F752C4044F04004C24E06EB8005C5F8004CC04D05EB8004A6
:20286000D4F8004C48F68F752C4044F48044BB4E06EB8005C5F8004C06EB8005D5F8005C6F
:2028800048F6BF7605EA0604B44E06EB8005C5F8004C00BFB14E06EB8005D5F8005C4BF6AD
:2028A0008F7605EA0604AD4E06EB8005C5F8004C00BF70BD2DE9F04104460D4605F07F015B
:2028C000C1EBC10704F1800606EB8700C26003614678BEBBA24F3F68BFB207EBC107BF1D35
:2028E000DFF880C20CEB470687683E2F15D9D0F808C0CCF34F1790F808C00CF01F0CBCF158
:20290000000F03D1A7F1010C1FFA8CF74FF4004C4CEA872CC6F800C013E0D0F808C0CCF35B
:202920004F0790F808C00CF0010CBCF1000F03D007F1010C1FFA8CF74FEA872CC6F800C04E
:2029400000BF71E0FFE7864F3F68BFB207EBC107BF1CDFF810C20CEB470687683E2F15D9C8
:20296000D0F808C0CCF34F1790F808C00CF01F0CBCF1000F03D1A7F1010C1FFA8CF74FF417
:20298000004C4CEA872CC6F800C015E0D0F808C0CCF34F1790F808C00CF01F0CBCF1000FA7
:2029A00003D1A7F1010C1FFA8CF74FF4004C4CEA872CC6F800C000BF694F3F68BFB207EB8B
:2029C000C107BF1DDFF89CC10CEB470687683E2F15D9D0F808C0CCF34F1790F808C00CF090
:2029E0001F0CBCF1000F03D1A7F1010C1FFA8CF74FF4004C4CEA872CC6F800C013E0D0F82A
:202A000008C0CCF34F0790F808C00CF0010CBCF1000F03D007F1010C1FFA8CF74FEA872C64
:202A2000C6F800C000BF00BFDFF830C10CEB8107D7F8007C4BF68F7C07EA0C0686F44057A8
:202A4000DFF8188108EB810CCCF8007CBDE8F0812DE9F84306460F469046994600200090D9
:202A600007F07F05C5EBC50106F1100000EB8104C4F80C80C4F8109000206061A1682069D7
:202A8000884202D9A068009001E020690090607880B9009B9AB26188E068FFF723FC304849
:202AA0000099006880B200EBC500801C2D4A42F810102BE02A480099006880B200EBC50066
:202AC000801C284A42F8101025480099006880B200EBC500801D42F81010204901EB85006D
:202AE000D0F8000C00F0400030B1009B9AB2E188E068FFF7F7FB05E0009B9AB2A188E06834
:202B0000FFF7F0FB00212846FFF7C8FB134A02EB8501D1F8001C48F6BF7201EA020080F00B
:202B200030010E4B03EB8502C2F8001CBDE8F883F0B5024601F07F00CC11ECB1C0EBC00559
:202B400002F1100404EB8503044E06EB8005D5F8005C48F6BF7605EA060405E00050004025
:202B6000505C00400060004084F01005924F07EB8006C6F8005C16E0C0EBC00502F18004F0
:202B800004EB85038C4E06EB8005D5F8005C4BF68F7605EA060484F48055874F07EB80066B
:202BA000C6F8005C00BF90B9834E06EB8005D5F8005C4BF6BF7605EA060484F4805585F052
:202BC00010057D4F07EB8006C6F8005C00BF01241C70F0BDF0B5024601F07F00CC1164B314
:202BE000C0EBC00502F1100404EB8503724D05EB8004D4F8004C04F040046CB105EB8004D3
:202C0000D4F8004C48F68F752C4044F040046A4E06EB8005C5F8004C674E06EB8005D5F847
:202C2000005C48F6BF7605EA060484F03005624F07EB8006C6F8005C2CE0C0EBC00502F171
:202C4000800404EB85035C4D05EB8004D4F8004C04F480446CB105EB8004D4F8004C48F6A1
:202C60008F752C4044F48044534E06EB8005C5F8004C514E06EB8005D5F8005C4BF68F7644
:202C800005EA060484F440554B4F07EB8006C6F8005C00BF00241C70F0BD30B50346002098
:202CA0000FE0454C04EB8002D2F8002C48F68F7422400243404D05EB8004C4F8002C421CFE
:202CC000D0B20428EDDB41F080023C4C226030BD0246C81140B14806374B03EBD050D0F81C
:202CE000000C00F030007047334B03EB8100D0F8000C0020F7E770B506460C4615460220F2
:202D0000B0702B46224680213046FFF7A1FE002070BD70B506460C4615462B462246802129
:202D20003046FFF795FE002070BD70B506460C4615460320B0702B46224600213046FFF780
:202D4000B9FD002070BD70B506460C4615462B46224600213046FFF7ADFD002070BD10B530
:202D600004460420A07000231A4680212046FFF76FFE002010BD10B5044610484C380068A8
:202D800040F4807048F68F7108400C494C3908600520A07000231A4619462046FFF78AFD4D
:202DA000002010BD0246C1EBC10302F1800000EB8300808A80B27047005000404C5C004022
:202DC0003048006880B220F004002E4908600846006880B220F008000860704729480068F6
:202DE00080B240F00C0027490860704710B50446052C01D0244804702348007806283BD2C7
:202E0000DFE800F0031016243B3C2048007828B9FFF7D6FF04201C49087002E003201A4942
:202E200008702CE0FFF7CCFF01201849087000BF0F20174908701348006880B240F0100058
:202E40001049086003201049087018E010480078401E0F4908700846007860B9094800682F
:202E600080B220F010000749086004200649087000200649087002E000BF00BF00BF00BF98
:202E800010BD0000405C0040A4000020A7000020A500002010B504460120FFF748F80520AE
:202EA000E07010BD10B504460020FFF740F8FFF759FA0020E07010BD0146002070472DE9DE
:202EC000F04104460D4617461E462046FFF7F4FFC4F8F070C4F8F460C4F8F850FFF7F7F8FF
:202EE0000020607101202070FFF728FABDE8F0811CB504466946204600F0E2FB9DF8000070
:202F000000F0600020B1202807D040280FD109E06946204600F0E2F80EE06946204600F06E
:202F2000F1F809E06946204600F010F904E000212046FFF7FDFD00BF00BF00201CBD70B5BA
:202F400004460E46C6EBC60104F1800000EB810566BBA07803281ED1A968286988420AD9D3
:202F6000A9682869401A2861288A82B22046E968FFF7E9FE27E0D4F8F000C06938B1E07825
:202F8000032804D1D4F8F000C169204688472046FFF7E5FE17E0A078052814D14D480068B9
:202FA00048F68F6108404B4908600CE0D4F8F000406A40B1E078032805D1D4F8F0003146D0
:202FC000426A20469047002070BD70B505460E46C6EBC60105F1100000EB8104002E45D1C5
:202FE000A878022833D1A168206988420AD9A1682069401A2061208A82B22846E168FFF74C
:2030000088FE4EE0A1682069B0FBF1F201FB120058B9A1692069884207D2002211462846A0
:20302000FFF777FE0020A0613BE000202061D5F8F000806938B1E878032804D1D5F8F0009C
:203040008169284688472846FFF795FE29E0A878042826D12048007818B31F48017828460D
:20306000FFF71BFE00201C4908701AE0D4E90401401A2061206968B9D5F8F000006A80B1AB
:20308000E87803280DD1D5F8F0003146026A2846904706E0208A83B231462846E268FFF7F8
:2030A000D7FC002070BD70B504460D46D4F8F0002946026820469047002070BD70B50446A0
:2030C0000D46D4F8F0002946426820469047002070BD0000005C0040A800002070B505466A
:2030E0000C466078F94951F82020214628469047002070BD70B504460D4600212046FFF7A3
:2031000017FD70BD70B504460D46E078032815D1287901280DDCD4F8F0002946C2682046D5
:2031200090470646E88840B93EB92046FFF717FE03E029462046FFF7DDFF04E02946204658
:20314000FFF7D8FF00BF00BF002070BD02460020704770477CB504460E46002001900090F1
:20316000307800F01F0020B1012819D0022864D132E0E078022802D003280ED100E000BF47
:20318000607920B1BDF8040040F002000190022201A92046FFF7AFFD00E000BF00BF51E0A4
:2031A000E078022802D0032813D104E031462046FFF7A0FF0EE03079012805DC022201A9E7
:2031C0002046FFF798FD03E031462046FFF792FF00E000BF00BF35E03579E078022802D042
:2031E000032827D107E02DB1802D03D031462046FFF780FF1FE005F0800080280BD105F028
:203200007F00C0EBC00104F1100010F8210058B10120009008E0C5EBC50104F1800010F800
:20322000210008B101200090022269462046FFF762FD00E000BF00BF04E031462046FFF760
:2032400059FF00BF00BF7CBD70B505460C460026207800F01F0020B101281DD0022850D19E
:2032600030E0E878022802D0032812D100E000BF6088012805D1002068712846FFF76FFD85
:2032800006E06088022803D121462846FFF732FF00E000BF00BF39E0A878022802D00328A8
:2032A0000DD104E021462846FFF724FF08E02079012803DD21462846FFF71CFF00E000BF4F
:2032C00000BF23E02679E878022802D0032815D107E02EB1802E03D021462846FFF70AFF05
:2032E0000DE0608830B92EB1802E03D031462846FFF770FC2846FFF732FD00E000BF00BF78
:2033000004E021462846FFF7F5FE00BF00BF70BD70B504460E460025307800F01F0020B1F0
:20332000012814D0022846D127E0E078022802D0032809D100E000BF7088012803D160717A
:203340002046FFF70CFD00E000BF00BF38E0A078022802D003280DD104E031462046FFF7BE
:20336000C9FE08E03079012803DD31462046FFF7C1FE00E000BF00BF22E0E078022802D0A6
:20338000032815D107E02DB1802D03D031462046FFF7B0FE0DE0708830B92DB1802D03D02A
:2033A00029462046FFF7C4FB2046FFF7D8FC00E000BF00BF04E031462046FFF79BFE00BFE6
:2033C00000BF70BD70B504460D46A888D0B9E888C0B9A87800F07F003D490870E07803288D
:2033E00004D129462046FFF785FE0FE02046FFF7B6FC3748007810B10220E07006E001207C
:20340000E07003E029462046FFF774FE70BDF8B504460E46307800F01F00002870D17088AC
:203420000012082867D2DFE800F06604111966665C612078D4F8F8100A686946904705468E
:20344000F088402801D1082000905AE02078D4F8F010CA6A69469047054652E0B0780628D7
:2034600038D2DFE800F0030B131B232B2078D4F8F8104A6869469047054630E02078D4F89E
:20348000F8108A6869469047054628E02078D4F8F810CA6869469047054620E02078D4F886
:2034A000F8100A6969469047054618E02078D4F8F8104A6969469047054610E02078D4F884
:2034C000F8108A6969469047054608E0AC000020A800002031462046FFF70CFEF8BD00BF53
:2034E0000FE031462046FFF705FEF7E731462046FFF700FEF2E731462046FFF7FBFDEDE7E0
:2035000016E000BFBDF8000088B1F08878B1F088BDF80010884202DDBDF8000000E0F08874
:203520000090BDF8002029462046FFF7E4FB0AE0307800F01F00012805D1D4F8F0003146A9
:2035400082682046904700BFC8E7704738B504460D4600200090E888012804D029462046A3
:20356000FFF7C8FD13E0E078022802D003280CD105E0012269462046FFF7BDFB06E001226D
:20358000611C2046FFF7B7FB00E000BF00BF38BD70B504460D46A878734908700846007871
:2035A000012804DD29462046FFF7A4FD46E0E078022802D003283FD114E06B48007868B1A8
:2035C0006948007860700320E070674801782046FFF769FD2046FFF7C2FB02E02046FFF73E
:2035E000BEFB2AE06048007868B90220E0705E48007860705C4801782046FFF75FFD20462C
:20360000FFF7ADFB17E060785749097888420FD061782046FFF752FD534800786070524872
:2036200001782046FFF73FFD2046FFF798FB02E02046FFF794FB00E000BF00BF70BD70B50D
:2036400004460D46E078022802D0032814D104E029462046FFF74EFD0FE02879012806DCD4
:20366000D4F8F000294602692046904703E029462046FFF73FFD00E000BF00BF70BD70B5DD
:2036800004460D46E078022802D0032814D104E029462046FFF72EFD0FE02879012806DCB4
:2036A000D4F8F000294642692046904703E029462046FFF71FFD00E000BF00BF70BD7047EB
:2036C00082790A70C2794A70037A427A03EB02224A80837AC27A03EB02228A80037B427BDB
:2036E00003EB0222CA80CB88836201228270704730B50B46002100BF16E00A24B4EB107F02
:2037000005D9302404EB107403F8114005E0412404EB10740A3C03F81140000100254C00F7
:20372000641C1D554C1CE1B29142E6DB30BD70B513460122B0B103261446551CEAB20E5526
:203740000AE010F8016B1446551CEAB20E5500261446551CEAB20E550478002CF1D11A804D
:203760001C780C7070BD0000E00000202DE9FC4107460024002500200190009097E0BDF8B6
:20378000040000F00F05F94901EB8500D0F8000C80B20090BDF8040000F0100068BBC5EB4C
:2037A000C50107F1100000EB8104BDF8000000F0800000287BD0ED4901EB8500D0F8000CB8
:2037C00048F60F710840E94A02EB8501C1F8000CE748006880B200EBC500801CE54931F80C
:2037E0001000C0F3090060616169E0680844E06029463846FFF7E9FB59E00026C5EBC50102
:2038000007F1800000EB8104BDF8000000F4004000284BD0D54901EB8500D0F8000CC0F37E
:203820000E0048F68F710840D04A02EB8501C1F8000CCF48006880B200EBC500801DCD498E
:2038400031F81000C0F30906A6B1BDF8000000F4006050B1B2B26188B81DFEF759FD384621
:20386000FFF746FB0020BDE8FC81B2B26188E068FEF74EFD606930446061E0683044E06000
:203880002069801B2061206910B1A068B04206D929463846FFF753FB0020606106E0208ABE
:2038A00083B229463846E268FFF704F800BFB0480C38006880B2019000F4004000287FF4B5
:2038C0005EAF00BFCFE72DE9FC41074600240025002001900090F9E0BDF8040000F00F05A6
:2038E000A24901EB8500D0F8000C80B20090BDF8040000F01000002879D1C5EBC50107F13D
:20390000100000EB8104BDF8000000F080000028E1D00026B046954901EB8500D0F8000CEA
:2039200048F60F710840914A02EB8501C1F8000CBDF8000000F4804070B18D48006880B275
:2039400000EBC500801C8B4931F81000C0F309006061B4F806800DE08548006880B200EB20
:20396000C500801D834931F81000C0F309006061B4F804806169E0680844E060D4E90401D3
:20398000401A2061A1682069884202D9208986B208E02069002805D9A1682069884201D888
:2039A000208A86B2002E08DD32464146E068FEF799FC00212846FEF771FC2069A8B96B4AB1
:2039C00002EB8501D1F8001C48F6BF7201EA020080F02001654B03EB8502C2F8001CD7F8D8
:2039E000F0002946026A644890476FE0FFE7C5EBC5016148803000EB8104BDF8000000F45C
:203A00000040002862D00026584901EB8500D0F8000CC0F30E0048F68F710840534A02EB2F
:203A20008501C1F8000CBDF8000000F0400088B14F48006880B200EBC500801C4D4931F8E1
:203A40001000C0F30906B6B1B2B2A188E068FEF75FFC10E04648006880B200EBC500801DA3
:203A6000444931F81000C0F3090626B1B2B2E188E068FEF74DFC01212846FEF70FFCE068BC
:203A80003044E0606069304460612069801B2061206910B1A068B04217D9344A02EB8501AA
:203AA000D1F8001C4BF68F7201EA020080F400512E4B03EB8502C2F8001CD7F8F00029463B
:203AC000426A2D4890470020606100BF28480C38006880B2019000F4004000287FF4FCAEF6
:203AE000BDE8FC8101460020704701460020704710B50446D4F8F000806A20B1D4F8F00026
:203B0000816A20468847002010BD10B504460520FFF76CF9002010BD10B504464FF48073D7
:203B2000002211462046FEF727FC4FF4A073002280212046FEF720FC4023002211462046BC
:203B4000FEF764FC4023002280212046FEF75EFC00212046FFF7A1F80823A21D00212046AE
:203B6000FEF7A8FE0120E070002010BD00500040505C004000600040C011002010B5044630
:203B8000E07820710420E0700948007810B1FFF725F902E00220FFF729F9002010BD10B55C
:203BA00004462079E0700020FFF720F9002010BDA600002070B504460D4640230022812107
:203BC0002046FEF7D9FBC023002282212046FEF7D3FB8023002203212046FEF7CDFB402376
:203BE000022281212046FEF711FC4023022203212046FEF70BFC0823032282212046FEF73C
:203C000005FC002070BD70B504460D4681212046FEF77DFD03212046FEF779FD822120461F
:203C2000FEF775FD002070BD2DE9F04105460C463A26774F60882121B1EB202F08D1E08870
:203C40003A2801DD3A2000E0E0880646704F0937324639462846FFF74EF80020BDE8F08160
:203C600070B505460C466078042815D007DC78B101280ED002280DD0032837D10BE0202819
:203C80000BD0212812D022282ED023282ED12CE02DE02CE02BE02AE029E060785D49086063
:203CA000E2885D492846FFF740F820E05B4800785949087059480088000A48705748006831
:203CC000000C887055480068000EC870534800790871524840794871504880798871E28808
:203CE0002846FFF708F802E001E000E000BF00BF002070BD70B504460D4601224849204616
:203D0000FEF7F9FF002070BD70B505460C46A078012803DAA0784249086003E021462846C6
:203D2000FFF7E8F9002070BD01463A480068FF281BD039480078384A527840EA0220364A0B
:203D4000927840EA0240344AD27840EA0260334A10603148007910712F48407950712E48D2
:203D600080799071FF202B4A10600020704770B504460D462B48006880B12A48007800F0C6
:203D80003F0058B9002028490870264908600023264A81212046FEF75BFE02E0012022499C
:203DA0000870002070BD02460120214B18702148006880B200EBC100801D1F4B33F81000F0
:203DC000C0F309001D4B1860002070470246432008800F480938704770B505460C4600200C
:203DE000114908700F480460A3B2104A81212846FEF72EFE70BD10B5044600200C4908702D
:203E000040230A4A03212046FEF754FD10BD0000F13E00081801002010010020200100206C
:203E20000C01002034000020300000205C11002031000020505C0040006000401C0100200A
:203E400070477047704770477047754600F028F8AE4605006946534620F00700854618B019
:203E600020B5FCF72BFBBDE820404FF000064FF000074FF000084FF0000B21F00701AC4628
:203E8000ACE8C009ACE8C009ACE8C009ACE8C0098D4670470446AFF300802046FCF7AFF9B7
:203EA00000487047EC1700205550444154450046414C544F525900515806454E44004438FA
:203EC000373855560056313030004E455745524F4D001201000202000040E9288A010001D0
:203EE000010203010403090409024300020100803209040000010202010005240010010552
:203F0000240100010424020205240600010705820308000A09040100020A00000007050353
:203F20000240000007058102400000004C3F0008000000205C0100006C010008FC3F0008A8
:203F40005C010020F41C0000C801000811840E2707680901020304060708090C69107D0295
:203F6000040608240236011361201B086B041A89041A75041A9D041AA7041ABB04031E1ADE
:203F80000312044975135531140849321B0853084B1133081AC508130F3414084B351B0809
:203FA0004D041A9104133F361B087F041ABF044113C73814086D371408E53A1B08EB041383
:203FC000193B1B08F1081A0B081A7D041A9F0422E4C22082FF2AC27C12081AB52413073CB8
:203FE0001B0829041A61041AF5044B093D601A29081A6F045AA7105ACD080000FFFFFFFFDA
:020000040800F2
:20400000F0010120794B0008B9470008BB470008BF470008C3470008C7470008000000007A
:20402000000000000000000000000000CB470008CD47000800000000FB960708917B000896
:20404000934B0008934B0008934B00083F520608934B0008934B0008B94D0608934B000849
:20406000934B0008934B0008934B0008934B0008934B0008934B0008934B0008934B000810
:20408000934B0008174A0008934B0008934B0008D34A0008934B0008934B0008214E060897
:2040A000934B0008934B0008934B0008934B0008934B0008934B0008934B0008934B0008D0
:2040C000934B0008934B0008934B0008934B0008934B0008934B000875500608934B0008C3
:2040E000934B0008934B0008F14A0008934B0008934B0008934B0008934B0008934B000833
:20410000934B0008934B0008B7480008934B00089B130608934B000803490008CF470008D2
:20412000934B0008934B0008934B0008934B000800F002F800F068F80AA090E8000C8244B9
:204140008344AAF10107DA4501D100F05DF8AFF2090EBAE80F0013F0010F18BFFB1A43F024
:2041600001031847C8FE0B00E8FE0B000A444FF0000C10F8013B13F0070408BF10F8014B14
:204180001D1108BF10F8015B641E05D010F8016B641E01F8016BF9D113F0080F1EBF10F84B
:2041A000014BAD1C0C1B09D16D1E58BF01F801CBFAD505E014F8016B01F8016B6D1EF9D598
:2041C0009142D6D3704700000023002400250026103A28BF78C1FBD8520728BF30C148BFA5
:2041E0000B60704764293AF055A0002070471FB57AF09AFA0400002000217BF019FD401C26
:2042000060601FBD10B510BD7AF069FA1146FFF7EEFF00F0B7F97AF099FA03B4FFF7F2FF2E
:2042200003BC03F0A1FD00000CB50020019000906C48006840F480306A49086000BF6948A1
:20424000006800F4003000900198401C0190009820B94FF6FF7101988842F0D16148006861
:2042600000F4003010B10120009001E0002000900098012843D15C48006840F010005A4953
:2042800008600846006820F0030008600846006840F0020008605348406852494860084661
:2042A000406848600846406840F4806048600846406820F47C1048600846406840F4041080
:2042C00048600846006840F08070086000BF4548006800F000700028F9D04248406820F0B1
:2042E0000300404948600846406840F00200486000BF3C48406800F00C000828F9D10CBD10
:2043000010B5FFF791FF10BD10B53648006840F0010034490860084640683449084031498F
:20432000486008460068324908402E4908600846006820F4802008600846406820F4FE00A3
:2043400048604FF41F008860FFF7DAFF29482A49086010BD10B5002100200022214B5B682C
:2043600003F00C0121B1042906D0082928D107E0224B234C236027E0224B214C236023E091
:20438000184B5B6803F47010164B5B6803F48032022303EB904022B91B4B4343184C236022
:2043A0000DE0104B5B6803F4003323B1174B4343134C236003E0134B4343114C236003E0A0
:2043C0000E4B0F4C236000BF00BF064B5B68C3F303130F4CE15C0A4B1B68CB40084C2360F6
:2043E00010BD000000100240002002400000FFF8FFFFF6FE0040000808ED00E0405DC600D3
:2044000000000020001BB700A02E6300808D5B000400002070B50446002600BF0020C74969
:20442000087000BF75F040F90646C54890F83900E8B1032004F0D6FDC248007840B901216D
:20444000C14801F0DCF98021C04801F0D6F907E08021BE4801F0D3F90121BB4801F0CFF9FB
:2044600001E004F0E1FDBA4800780028F9D1012077F0D5F9B7490860012077F0D0F9B6490F
:204480000860012077F0CBF9B4490860012077F0C6F9B3490860012077F0C1F9B1490860B4
:2044A000012077F0BCF9B0490860012077F0B7F9AE49086065F0D7FF31F0EDFD04F0E2FEBD
:2044C0004BF0DAF81EF0AAFE65F099F860F0BDFD08F0A5FB4EF00BFE0BF096FE4FF0FCF987
:2044E0005BF0B8FD59F019FA49F0E7FD56F0EDFA52F029F801209E4908704DF0A7FC002033
:204500009B49087068F04CFF00209A49087055F04DF856F0F0FB642097490880C8209749B2
:20452000087051F093FC08F0FDFF56F0A9FFC820934908709348007808B11AF07BFC5DF03B
:204540005CFD5AF01DFF55F063F857F07BFB7D48407860B17A4840798B4951F830008B4915
:2045600008604B2009F08AFE0020894908801E2077F020FE4FF4807001F029F8304675F08A
:2045800099F870BD10B55EF027FB5EF086FB03F05EFB03F0E3FB61F05FF85FF0A7FB65F04E
:2045A000D1FD5EF0B7FC60F032F859F075FA60F06DFB5FF0C4FB002076490870002140F686
:2045C000FF705FF0F7FB032140F6FF7061F069F85EF06AFD5FF076FD31F08DFD5EF0F6FD4D
:2045E0005EF0DEFE0021FF205FF061FC00214FF480605FF0CDFC40F2E73142F6E0605FF038
:2046000000FD40F2E73177205FF033FD4FF4165060F0A6FC0020604908804FF6FF705F49F5
:2046200008805EF09CFF5EF0D4FF18F0D0FA5DF099FD18F0C3F95CF05EFA5BF07FFB64F0B2
:2046400031FF12F05AFD51F052F951F0CEF91FF02CFF0BF01FFE14F0E1FF5EF099FA5BF0DB
:204660009EF832F0EDFE17F0D4FF1AF096FC58F030F857F0DBF94A48007818B1102032F071
:204680002CFC02E00F2032F028FC65F0EDFD4BF0FFFF60F04EFA0DF0D9FE0EF0A4FA47F0E4
:2046A0000CFF4FF045FC5CF044FD61F08DF965F09DFF65F010FE3A48007828B101206CF067
:2046C000CCFE3849088008E067F098FB66F0FDFE00206CF0C2FE3349088060F028FF4CF0F1
:2046E00005F84FF052F81AF01EFC65F006FE66F023FB5EF0E1FA00202B490870401E2B493C
:204700000860000C2449088000202449088031F01AF90821264801F070F84FF4807000F0D4
:2047200056FF75F066FC1E23224A0021AFF21B3077F0C0FA75F084FD002010BD320000205D
:20474000406E00207E910020001801400008014060000020B8090020F80800200C0300200A
:20476000BC0C0020E00C0020C40A0020040300200D0A0020EE0D0020240B0020690B0020FB
:204780001C0A002083060020402F0808600700205C070020180A00209407002096070020E7
:2047A000070E0020D00D002099070020A00700200010014050180020704700BFFEE700BF4D
:2047C000FEE700BFFEE700BFFEE77047704710B50121CA4802F0E9F900286BD00121C748DD
:2047E00002F0F4F9C6480078401CC5490870C5480068401CC3490860C3480078012807D0AA
:20480000C248007820B1C1480078401EBF490870BF48006820B1BE480068401EBC4908606D
:20482000BC48008820B1BB480088401EB9490880B948008820B1B8480088401EB6490880E1
:20484000AF4800780A2835DB0020AD490870B348008820B1B1480088401EB0490880B0486D
:20486000008820B1AE480088401EAD490880AD48008890B1AB480088401EAA490880084625
:20488000008850B90A2008800121A74800F09BFF18B10821A54800F0B2FFA548007848B15C
:2048A000A3480078401EA24908700846007808B904F015FA10BD10B501219E4802F075F950
:2048C000F0B101219B4802F081F99B480078042816D099480078012802D106F044FC0FE0DF
:2048E00095480078032803D093480078022802D108F0A0F904E09148007808B104F0EBFCBB
:2049000010BD10B501218E4802F04FF9D0B101218B4802F05BF98B48007898B98A48007831
:20492000012802D104F0C9FE0CE087480078022802D106F05EFF05E083480078032801D118
:2049400005F065FB10BD70BB0021804A117025E07F497E4A127831F812107E4A1180114684
:2049600009887D4A128811447C4A1180114609884FF4B47291FBF2F302FB1311774A118064
:204980007749128831F812207649704B1B7821F813206E490978491C6C4A11706B49097800
:2049A0004029D5DB36E0FFE70021684A117029E066490978491C4FF4B4725143232291FB22
:2049C000F2F1644A118011460988634A12881144624A1180114609884FF4B47291FBF2F332
:2049E00002FB13115D4A11805D49128831F812105C4A564B1B7822F8131054490978491C39
:204A0000524A1170514909784029D1DB53490988514A1180704710B54FF0806000F02FFD39
:204A200038B351480078D8B95AF06BFD5AF051FD4E48007840B90020FFF785FF80224949CA
:204A40004B4879F06EFC0FE04848007801280BD1FFF779FF80224349454879F062FC03E021
:204A60008021434879F0D4FC4FF0806000F01BFD2EE04FF0007000F002FD48B33A48007809
:204A8000E8B95AF03EFD5AF024FD3848007848B90020FFF758FF802232493548803079F06C
:204AA00040FC11E03148007801280DD1FFF74BFF80222C492E48803079F033FC04E0802137
:204AC0002B48803079F0A4FC4FF0007000F0EBFC10BD10B578F0A0FA2648007820B94FF48E
:204AE000FA700F49088002E000200D49088010BD10B54FF4802000F06AFD10BD001400409F
:204B0000DE0C002014000020620F0020DB0D00201C0E002044010020EE0000209C0600203F
:204B2000200B0020B80C0020000801400010014055000020000C00403C010020600000200E
:204B400000100040910100205801002018000020E60C08081A000020420C00201C000020BC
:204B6000940908080C950020410C00203F0C00200C9400201F0B0020094880470948004735
:204B8000FEE7FEE7FEE7FEE7FEE7FEE7FEE7FEE7FEE7FEE704480549054A064B7047000032
:204BA0000943000831410008F0FB0020F0010120F0FD0020F0FD002031490143314A116046
:204BC000704770B5002100230F22C47804B32D4C246804F4E064C4F5E064210AC1F104036F
:204BE000CA40447804FA03F18478144021430901254C0678A155047804F01F050124AC40B5
:204C000005786D11AD0005F1E025C5F8004109E0047804F01F050124AC401C4D06787611F7
:204C200045F8264070BD1A4A0A400243154B1B1F1A60704739B1134A121D12680243114B55
:204C40001B1D1A6006E00F4A121D126882430D4B1B1D1A607047042808D14FF0E02109697D
:204C600041F004014FF0E022116107E04FF0E021096921F004014FF0E02211617047000032
:204C80000000FA050CED00E000E400E080E100E080FFFF1F10B50446FA48844208D1012188
:204CA000401501F03AF80021601501F036F817E0F548844208D10121001501F02EF8002185
:204CC000201501F02AF80BE0F048844208D10121C80301F022F800214FF4004001F01DF828
:204CE00010BD30B50246002000235068E84C20400D790C6844EA0524204350609068E54C9E
:204D00002040D1E902542C434D7944EA450420439060D06A20F470000C7C641EE4B2234360
:204D200040EA0350D06230BD00210160017141718160C16001210174704721B1826842F0F3
:204D40000102826003E0826822F001028260704721B1826842F48072826003E0826822F44A
:204D600080728260704710B50023CBB21AB144681C43446002E044689C43446010BD816802
:204D800041F0080181607047014600208A6802F008020AB1012000E000207047816841F03F
:204DA000040181607047014600208A6802F004020AB1012000E00020704721B1826842F480
:204DC000A002826003E0826822F4A00282607047014600208A6802F480020AB1012000E0A4
:204DE0000020704710B50A4600210023416821F46041531E41EA4331416010BD21B142682A
:204E000042F40062426003E0426822F4006242607047F0B504460D4600200021092D11DD53
:204E2000E068A5F10A0606EB4607072606FA07F18843A5F10A0606EB460603FA06F1084334
:204E4000E0600CE0206905EB4507072606FA07F1884305EB450603FA06F108432061072A45
:204E60000FDA606B561E06EB86071F2606FA07F18843561E06EB860605FA06F1084360638F
:204E800022E00D2A0FDA206BD61F06EB86071F2606FA07F18843D61F06EB860605FA06F182
:204EA0000843206310E0E06AA2F10D0606EB86071F2606FA07F18843A2F10D0606EB86069B
:204EC00005FA06F10843E062F0BD21B1826842F48012826003E0826822F48012826070472E
:204EE0000146C86C80B2704766484C300068704721B1426842F48062426003E0426822F42C
:204F000080624260704721B1426842F48052426003E0426822F48052426070470A460021F1
:204F2000816821F4E04111438160704721B1826842F40042826003E0826822F40042826049
:204F4000704721B1826842F40212826003E0826822F4021282607047014600208A6802F4D3
:204F600000120AB1012000E000207047F0B504461546002000220026092911DDE068A1F1E0
:204F80000A0707EB470C072707FA0CF29043A1F10A0707EB470703FA07F21043E0600CE063
:204FA000206901EB410C072707FA0CF2904301EB410703FA07F210432061A06BC0F301561C
:204FC000EF1C06F1010CA7EB0C0707EB870C1F2707FA0CF29043EF1C06F1010CA7EB0C07CC
:204FE00007EB870701FA07F21043A063F0BD10B50A4600210023816B21F44011531E41EAF3
:205000000351816310BD08B5002300930090009B0B440093009B1A6008BD08B5024600200C
:205020000090009201F12800009B184400900098006880B208BD0A4600214168164B1940E2
:205040001143416070474162826270470A460021416821F01F0111434160704740B109492C
:205060000831096841F40001064A0832116007E004490831096821F40001024A083211606A
:20508000704700000024014000280140003C0140FFFEF0FFFDF7F1FFFFFD3FFF024600209C
:2050A00013680B400BB1012000E000207047CA430260704770B502460020002300240B127F
:2050C0005568CEB205EA060415681D4015B10CB1012000E0002070BD00220A12D343036038
:2050E0007047000010B50121480700F023FE00214FF0005000F01EFE10BD30B500220023FF
:205100005A4C226840F6FE748440A243D1E900452C438D682C43CD6844EA050303FA00F4E0
:205120002243524C226030BD0021016041608160C160704739B14D4A1268012383401A43E2
:205140004A4B1A6006E0494A1268012383409A43464B1A60704741B1444A12684FF48053B7
:2051600083401A43414B1A6007E0404A12684FF4805383409A433D4B1A60704710B551B1E8
:205180003A4A121D126804090123A3401A43374B1B1D1A6009E0354A121D126804090123FB
:2051A000A3409A43314B1B1D1A6010BD40B12F49091D096841F003012C4A121D116007E002
:2051C0002A49091D096821F00301284A121D1160704710B53AB1254B1B6801FA00F42343EF
:2051E000224C236006E0214B1B6801FA00F4A3431E4C236010BD08B5002200921B4A0092F2
:2052000000F10802009B1A440092009A116008BD08B500220092154A009200F11402009B34
:205220001A440092009A116008BD30B500240023082802D142EA012401E042EA01440B4B86
:2052400000F120052B441C6030BD08B5014600200090064800902C2000EB9100009A104418
:2052600000900098006880B208BD00000074004001684FF6FE721140016000210160416000
:205280008160C1608D49884208D18C490839496841F00F01894A083A51608AE08749143146
:2052A000884208D185490839496841F0F001834A083A51607DE081492831884208D17F49BE
:2052C0000839496841F470617C4A083A516070E07A493C31884208D178490839496841F412
:2052E0007041764A083A516063E074495031884208D172490839496841F470216F4A083AB8
:20530000516056E06D496431884208D16B490839496841F47001694A083A516049E06749ED
:205320007831884208D165490839496841F07061624A083A51603CE06149884206D1011F59
:20534000096841F00F01021F116032E05C491431884208D15A49091F096841F0F001584A6A
:20536000121F116025E056492831884208D15449091F096841F47061514A121F116018E07A
:205380004F493C31884208D14D49091F096841F470414B4A121F11600BE049495031884251
:2053A00007D14749091F096841F47021444A121F1160704710B50022026847F6F0739A4371
:2053C0000C6A8B6823430C6923434C6923438C692343CC6923434C6A23438C6A23431A433D
:2053E0000260CB6843600B6883604B68C36010BD0021016041608160C16001614161816171
:20540000C161016241628162704721B1026842F00102026004E002684FF6FE731A40026037
:2054200070471AB103680B43036002E003688B4303607047416070470146486880B2704761
:2054400001460020002201F080531BB11C4B083B1A6802E0194B083B1A6802EA01030BB150
:20546000012000E00020704700F0805119B11449091F086002E011490839486070470146B9
:205480000020002201F080531BB10D4B083B1A6802E00A4B083B1A6802EA01030BB1012054
:2054A00000E00020704700F0805119B10449091F086002E0014908394860704708000240B7
:2054C00008040240002044490860091D0860091D0860091D086041483F491431086070474A
:2054E00000213D498279002A3AD00A46126803689A430B461A600A1D126803689A430B1DE8
:205500001A60027911440A6803681A430A60324A0832126803689A432F4B08331A601A1DBF
:20552000126803689A432C4B0C331A604279102A0ED11A1F126803681A43274B08331A6003
:205540001A1D126803681A43234B0C331A600DE02149427911440A6803681A430A6005E0BB
:20556000027911440A6803689A430A6070470021016001710C214171002181717047164984
:20558000103109680143144A10321160704701460020114A143212680A400AB1012000E0C5
:2055A000002070470C49143108607047014600200022094B1B6803EA0102074B14331B68EF
:2055C0000B4013B10AB1012000E0002070470249143108607047000000040140FFFF0F0028
:2055E00010B50446CC48844208D10121042000F094FB0021042000F090FB46E0C748844269
:2056000008D10121082000F088FB0021082000F084FB3AE0C248844208D10121102000F037
:205620007CFB0021102000F078FB2EE0BD48844208D10121202000F070FB0021202000F07F
:205640006CFB22E0B848844208D10121402000F064FB0021402000F060FB16E0B3488442EE
:2056600008D10121802000F058FB0021802000F054FB0AE0AE48844207D10121801500F027
:205680004CFB0021A01500F048FB10BD10B50121084600F042FB0021012000F03EFB10BD53
:2056A0002DE9F041024600250026002000230024002791F803C00CF00F0591F803C00CF0DE
:2056C000100CBCF1000F03D091F802C04CEA050591F800C0BCF1000F31D0146800202BE0E7
:2056E0004FF0010C0CFA00F3B1F800C00CEA03069E4220D183004FF00F0C0CFA03F7BC4350
:2057000005FA03FC4CEA040491F803C0BCF1280F06D14FF0010C0CFA00FCC2F814C00AE080
:2057200091F803C0BCF1480F05D14FF0010C0CFA00FCC2F810C0401C0828D1D31460B1F81E
:2057400000C0BCF1FF0F34DD546800202EE000F1080C4FF0010808FA0CF3B1F800C00CEA26
:2057600003069E4221D183004FF00F0C0CFA03F7BC4305FA03FC4CEA040491F803C0BCF13D
:20578000280F05D100F1080C08FA0CF8C2F8148091F803C0BCF1480F07D100F1080C4FF037
:2057A000010808FA0CF8C2F81080401C0828CED35460BDE8F0814FF6FF710180022181704F
:2057C0000421C17070470246002093680B400BB1012000E0002070470146886880B270475A
:2057E00002460020D3680B400BB1012000E0002070470146C86880B270470161704741610C
:2058000070470AB1016100E041617047C16070474FF480320A4382618161826182698269E3
:20582000704702460020434B18684FF68073184040EA021008433F4B186070473E49C861BB
:205840007047F0B50A46002300240021002500F00046B6F1004F02D1364EF16901E0354ECE
:205860007168C0F3034583B200F44016B6F5401F08D121F070612F4E766826F070662D4F4D
:205880007E6012E000F48016B6F5801F06D1032606FA05F4A14341F0706106E0460D360115
:2058A00003FA06F6B14341F0706122B1460D360103FA06F6314300F00046B6F1004F02D130
:2058C0001C4EF16101E01B4E7160F0BD30B500228B071C0F0F2303FA04F2164B08338C1023
:2058E00053F824309343134C08348D1044F8253023468C1053F824308C07240F00FA04F40E
:2059000023430C4C08348D1044F8253030BD0A49DC3108607047000000080140000C01405D
:20592000001001400014014000180140001C014000200140000001400000204210B5012120
:20594000080700F0F7F900214FF0805000F0F2F910BD2A4908627047284908617047014614
:205960000020274A106820F0E0000843106070472249A0310860704710B502460020204BC9
:20598000186820F00300104318601E4B1B6843F004031C4C2360012901D130BF00E020BFEE
:2059A000184B1B6823F00403164C236010BD1448006840F00400124908600846006840F094
:2059C000020008600F48006840F004000D49086000BF00BF30BF704701460020084A526815
:2059E0000A400AB1012000E0002070470449096841EA8001024A11607047000000000E429C
:205A00000070004010ED00E0E048006840F00100DE49086008464068DD490840DB49486079
:205A200008460068DB490840D84908600846006820F4802008600846406820F4FE00486039
:205A40004FF41F0088607047D049096821F48031CE4A11601146096821F480211160B0F5D8
:205A6000803F03D0B0F5802F0ED106E0C749096841F48031C54A116007E0C449096841F4FA
:205A8000A021C24A116000E000BF00BF704710B501460022002300204A11012A02D1BB4CE2
:205AA000236806E0022A02D1B84C236A01E0B74C636A01F01F02012494401C400CB10120EF
:205AC00000E0002010BD38B5002000900024002500BF3120FFF7DBFF05460098401C009064
:205AE0004FF6FF710098884201D0002DF1D03120FFF7CDFF08B1012400E00024204638BD80
:205B000001460020A14A106820F0F80040EAC10010607047A04908607047024600209B4B4B
:205B2000586820F47C1042EA01031843974B5860704799490866704701460020934A506826
:205B400020F003000843506070479048406800F00C007047014600208C4A506820F0F00058
:205B600008435060704701460020884A506820F4E06008435060704701460020834A506890
:205B800020F4605040EAC1005060704729B17F4A527A02437D4B5A7204E07C4A527A82436C
:205BA0007A4B5A7270477C49D8310860704701460020764A506820F440400843506070478B
:205BC0000021724A20321170704A82F82010012802D004280AD104E001216C4A2032117020
:205BE00005E00521694A2032117000E000BF00BF70476A49086070476449096A0143634A1C
:205C000011627047654944390860704730B500210022002400235D4D6D6805F00C0121B14E
:205C2000042905D0082923D105E05D4D056022E05C4D05601FE0554D6D6805F47012534DA8
:205C40006D6805F48034022505EB92421CB9564D554305600BE04D4D6D6805F400351DB10C
:205C6000524D5543056002E04E4D5543056002E04B4D056000BF00BF444D6D6805F0F00165
:205C800009094B4D6B5C0568DD4045603F4D6D6805F4E061090A464D6B5C4568DD408560AD
:205CA0003A4D6D6805F46051C90A414D6B5C4568DD40C560354D6D6805F44041890B3D4DD8
:205CC0006B5CC568B5FBF3F5056130BD29B12F4A526902432D4B5A6104E02C4A5269824385
:205CE0002A4B5A61704729B1284A92690243274B9A6104E0254A92698243244B9A61704790
:205D000029B1224AD2690243204BDA6104E01F4AD26982431D4BDA61704729B11B4AD268F7
:205D200002431A4BDA6004E0184AD2688243174BDA60704729B1154A12690243134B1A6115
:205D400004E0124A12698243104B1A61704713494039086070471049C86470470B49C87179
:205D600070470A48406A40F0807008494862704701460020054A92680A400AB1012000E0E8
:205D8000002070470149887270470000001002400000FFF8FFFFF6FE00004242800442426A
:205DA000405DC600001BB700A02E6300808D5B001E0000202E00002010B50446FE4884426E
:205DC00008D10121C014FFF7A8FF0021E014FFF7A4FFC4E0B4F1804F08D101210846FFF752
:205DE000A9FF00210120FFF7A5FFB8E0F348844208D101210220FFF79DFF00210220FFF79E
:205E000099FFACE0EE48844208D101210420FFF791FF00210420FFF78DFFA0E0E94884427F
:205E200008D101210820FFF785FF00210820FFF781FF94E0E448844208D101211020FFF77F
:205E400079FF00211020FFF775FF88E0DF48844208D101212020FFF76DFF00212020FFF7C6
:205E600069FF7CE0DA48844208D101214014FFF754FF00216014FFF750FF70E0D5488442D1
:205E800009D10121C804FFF748FF00214FF40020FFF743FF63E0D048844209D10121080517
:205EA000FFF73BFF00214FF48010FFF736FF56E0CA48844209D101214805FFF72EFF0021F8
:205EC0004FF40010FFF729FF49E0C548844208D101214020FFF72EFF00214020FFF72AFF37
:205EE0003DE0C048844208D101218020FFF722FF00218020FFF71EFF31E0BB48844208D17E
:205F000001218015FFF716FF0021A015FFF712FF25E0B648844209D101210804FFF7FDFE20
:205F200000214FF48030FFF7F8FE18E0B048844209D101214804FFF7F0FE00214FF40030EB
:205F4000FFF7EBFE0BE0AB48844208D101218804FFF7E3FE00214FF48020FFF7DEFE10BDBD
:205F600000220288944B98420ED0994B98420BD0B0F1804F08D0914B984205D0904B9842BD
:205F800002D0904B984204D14FF68F731A404B881A438D4B984207D08C4B984204D04FF681
:205FA000FF431A40CB881A4302808B8883850B880385814B98420BD0854B984208D08B4B04
:205FC000984205D08A4B984202D08A4B984201D10B7A038601238382704770B500240022B7
:205FE0000023058C4FF6FE7635400584028C8388048B4FF68F752C40B51E2C400D882C4316
:020000040800F2
:20600000751E2A400D892A434D882A436A4DA8420BD06F4DA84208D0744DA84205D0744D03
:20602000A84202D0734DA84213D14FF6F7752A404D892A434FF6FB752A408D882A434FF6D2
:20604000FF652B404FF6FF552B408D892B43CD892B4383800483CD888586028470BD70B563
:20606000002400220023058C4FF6EF7635400584028C8388048B48F6FF752C404FF6FF45AF
:206080002C400D884FF6FF7606EA05252C434FF6DF752A400D8906EA05152A434D8806EAE7
:2060A00005152A43444DA84202D0494DA8421DD14FF67F752A404D894FF6FF7606EA051561
:2060C0002A434FF6BF752A408D8806EA05152A434FF6FF352B404FF2FF752B408D8906EADA
:2060E00085052B43CD8906EA85052B4383800483CD880587028470BD70B5002400220023BE
:20610000058C4FF6FF6635400584028C8388848B4FF68F752C404FF6FC752C400D882C43C3
:206120004FF6FF552A400D894FF6FF7606EA05252A434D8806EA05252A431F4DA84202D001
:20614000234DA8421DD14FF2FF752A404D894FF6FF7606EA05252A434FF6FF352A408D88C9
:2061600006EA05252A434EF6FF752B404DF6FF752B408D8906EA05152B43CD8906EA051565
:206180002B4383808483CD888587028470BD70B5002200230024058C4EF6FF76354005849D
:2061A000038C8488828B48F6FF752A404FF6FF452A400D8820E00000002C014000040040E2
:2061C00000080040000C0040001000400014004000340140004C014000500140005401405F
:2061E00000180040001C0040002000400040014000440140004801404FF6FF7606EA052528
:206200002A434DF6FF752B400D8906EA05352B434D8806EA05352B43FA4DA84202D0FA4D0A
:20622000A84208D14BF6FF752C408D894FF6FF7606EA85152C4384808283CD88A0F840502B
:20624000038470BD828B4FF2FF331A408283828B4FF6FF7303EA01231A4382837047F0B518
:206260000C461546002200210026078C4EF6FF7C07EA0C070784828B018C4FF6FF7707EAE1
:20628000043640F6FF473A404FF6FF7707EA05273A434FF6FF7707EA03373A43D94FB842F4
:2062A0000ED0D94FB8420BD0B0F1804F08D0D74FB84205D0D64FB84202D0D64FB84206D1DF
:2062C0004DF6FF77394046F48057394305E047F6FF57394044F48057394382830184F0BD4C
:2062E000828B4FF6F3731A408283828B0A4382837047F0B50C461546002200210026078C23
:206300004FF6FF6C07EA0C070784828B018C4FF6FF7707EA04264FF60C773A404FF6FF77D1
:2063200007EA03172F433A43B64FB8420ED0B64FB8420BD0B0F1804F08D0B44FB84205D092
:20634000B34FB84202D0B34FB84206D14FF6FF57394046F48077394305E04FF2FF573940E6
:2063600044F48077394382830184F0BD028B4FF2FF331A400283028B4FF6FF7303EA012307
:206380001A4302837047F0B50C461546002200210026078C4FF6EF7C07EA0C070784028B4A
:2063A000018C4FF6FF7707EA041640F6FF473A404FF6FF7707EA03373A434FF6FF7707EA85
:2063C00005273A438F4FB8420ED08F4FB8420BD0B0F1804F08D08D4FB84205D08C4FB842E3
:2063E00002D08C4FB84206D14FF6DF77394046F01007394305E04FF65F77394044F010077E
:20640000394302830184F0BD028B4FF6F3731A400283028B0A4302837047F0B50C461546CA
:2064200000220021068C4FF6FE773E400684028B018C4FF60C7632407E1C06EA03162E435E
:206440003243704EB0420ED06F4EB0420BD0B0F1804F08D06D4EB04205D06D4EB04202D066
:206460006C4EB04206D14FF6FD76314044F00106314305E04FF6F576314044F0010631430C
:2064800002830184F0BD70B505460C465D4885420ED05D4885420BD0B5F1804F08D05B4802
:2064A000854205D05A48854202D05A48854200D100E000BF208850B92389A288618828464E
:2064C000FFF7ABFFE1882846FFF79EFF25E0208804280AD12389A28861882846FFF753FF89
:2064E000E1882846FFF742FF17E0208808280AD12389A28861882846FFF7FBFEE1882846F1
:20650000FFF7EEFE09E02389A28861882846FFF7A6FEE1882846FFF795FE70BD2DE9F04115
:2065200005460C4600260127608808B9022600E00026A088012801D1022700E0012720889D
:20654000A0B92389A28861882846FFF766FFE1882846FFF759FF23893A4631462846FFF72E
:2065600012FFE1882846FFF701FF13E02389A28861882846FFF707FFE1882846FFF7F6FE60
:2065800023893A4631462846FFF747FFE1882846FFF73AFFBDE8F0810A884B881A438B88BD
:2065A0001A43CB881A430B891A434B891A438B891A43A0F8442070474FF6FF7181800021B1
:2065C0000180C1804180017270470021018041808180C180018141818181C1817047002109
:2065E00001804180012181800021C180018170470021018041808180C180018141818181B0
:2066000070470000002C0140003401400004004000080040000C004021B1028842F0010278
:20662000028004E002884FF6FE731A400280704731B1B0F8442042F40042A0F8442005E0DA
:20664000B0F84420C2F30E02A0F8442070471AB183890B43838102E083898B438381704716
:206660008182704741EA0203A0F8483070471AB183890B43838102E083898B4383817047C9
:2066800001894FF6F8721140018170470A46002101894FF68F73194011430181704730B52A
:2066A00004460D4629462046FFF7F0FF208940F00700208130BD2DE9F04104460D461646D5
:2066C0001F46602D06D13B46012231462046FFF75AFE05E03B46012231462046FFF79DFE2B
:2066E00029462046FFF7D2FF208940F007002081BDE8F08130B50C4600210189C9B24FF6C5
:20670000FF7505EA0325154325432943018130BD2DE9F04105460E46174698460024434685
:206720003A4631462846FFF7E5FF2C894FF6F870044044F007044FF68F70044044F0700405
:206740002C81BDE8F081F0B504460D4616461F463B46324629462046FFF7CCFF208940F407
:2067600080402081F0BD0185828270470A46002101884FF68F731940114301807047F0B5FF
:206780000C4615461E460021002200230189028B038C4FF6F877394021434FF6FC473A4049
:2067A00040F201173A434FF6DD773B404FF6FF7707EA06172F433B43018102830384F0BD0A
:2067C0000A460021018B4FF68F7319401143018370470A460021018B48F6FF7319404FF642
:2067E000FF7303EA02231943018370470A460021818B4FF68F7319401143818370470A4602
:206800000021818B48F6FF7319404FF6FF7303EA022319438183704721B1028842F0800252
:20682000028004E002884FF67F731A400280704721B1828842F00402828004E082884FF655
:20684000FB731A408280704721B1828842F00802828004E082884FF6F7731A4082807047ED
:2068600021B1828842F00102828004E082884FF6FE731A40828070470A460021018B4FF60C
:20688000F77319401143018370470A460021018B4FF2FF7319404FF6FF7303EA0223194378
:2068A000018370470A460021818B4FF6F77319401143818370470A460021818B4FF2FF73D9
:2068C00019404FF6FF7303EA02231943818370470A460021018B4FF6FB731940114301839E
:2068E00070470A460021018B4FF6FF3319404FF6FF7303EA02231943018370470A46002143
:20690000818B4FF6FB7319401143818370470A460021818B4FF6FF3319404FF6FF7303EA5F
